{
  "_format": "hh-sol-artifact-1",
  "contractName": "UpsideV1PoolDeployer",
  "sourceName": "contracts/UpsideV1PoolDeployer.sol",
  "abi": [
    {
      "inputs": [],
      "name": "parameters",
      "outputs": [
        {
          "internalType": "address",
          "name": "factory",
          "type": "address"
        },
        {
          "internalType": "address",
          "name": "owner",
          "type": "address"
        },
        {
          "internalType": "uint24",
          "name": "fee",
          "type": "uint24"
        }
      ],
      "stateMutability": "view",
      "type": "function"
    }
  ],
  "bytecode": "0x608060405234801561001057600080fd5b50610183806100206000396000f3fe608060405234801561001057600080fd5b506004361061002b5760003560e01c80638903573014610030575b600080fd5b610038610050565b604051610047939291906100d5565b60405180910390f35b60008060000160009054906101000a900473ffffffffffffffffffffffffffffffffffffffff16908060010160009054906101000a900473ffffffffffffffffffffffffffffffffffffffff16908060010160149054906101000a900462ffffff16905083565b6100c08161010c565b82525050565b6100cf8161013e565b82525050565b60006060820190506100ea60008301866100b7565b6100f760208301856100b7565b61010460408301846100c6565b949350505050565b60006101178261011e565b9050919050565b600073ffffffffffffffffffffffffffffffffffffffff82169050919050565b600062ffffff8216905091905056fea26469706673582212204794618f71d555346ccb3bca1da8ef8a9e4c7489dab2291932632d0139b7611f64736f6c63430008000033",
  "linkReferences": {},
  "deployedLinkReferences": {}
}