{
  "_format": "hh-sol-artifact-1",
  "contractName": "UpsideV1Pool",
  "sourceName": "contracts/UpsideV1Pool.sol",
  "abi": [
    {
      "inputs": [],
      "stateMutability": "nonpayable",
      "type": "constructor"
    },
    {
      "inputs": [],
      "name": "factory",
      "outputs": [
        {
          "internalType": "address",
          "name": "",
          "type": "address"
        }
      ],
      "stateMutability": "view",
      "type": "function"
    },
    {
      "inputs": [],
      "name": "fee",
      "outputs": [
        {
          "internalType": "uint24",
          "name": "",
          "type": "uint24"
        }
      ],
      "stateMutability": "view",
      "type": "function"
    },
    {
      "inputs": [],
      "name": "owner",
      "outputs": [
        {
          "internalType": "address",
          "name": "",
          "type": "address"
        }
      ],
      "stateMutability": "view",
      "type": "function"
    }
  ],
  "bytecode": "0x60e060405234801561001057600080fd5b503373ffffffffffffffffffffffffffffffffffffffff1663890357306040518163ffffffff1660e01b815260040160606040518083038186803b15801561005757600080fd5b505afa15801561006b573d6000803e3d6000fd5b505050506040513d601f19601f8201168201806040525081019061008f9190610141565b8062ffffff1660c09062ffffff1660e81b8152508173ffffffffffffffffffffffffffffffffffffffff1660a09073ffffffffffffffffffffffffffffffffffffffff1660601b8152508273ffffffffffffffffffffffffffffffffffffffff1660809073ffffffffffffffffffffffffffffffffffffffff1660601b8152505050506101ff565b600081519050610126816101d1565b92915050565b60008151905061013b816101e8565b92915050565b60008060006060848603121561015657600080fd5b600061016486828701610117565b935050602061017586828701610117565b92505060406101868682870161012c565b9150509250925092565b600061019b826101a2565b9050919050565b600073ffffffffffffffffffffffffffffffffffffffff82169050919050565b600062ffffff82169050919050565b6101da81610190565b81146101e557600080fd5b50565b6101f1816101c2565b81146101fc57600080fd5b50565b60805160601c60a05160601c60c05160e81c6101d7610234600039600060ea0152600060a20152600060c601526101d76000f3fe608060405234801561001057600080fd5b50600436106100415760003560e01c80638da5cb5b14610046578063c45a015514610064578063ddca3f4314610082575b600080fd5b61004e6100a0565b60405161005b919061012a565b60405180910390f35b61006c6100c4565b604051610079919061012a565b60405180910390f35b61008a6100e8565b6040516100979190610145565b60405180910390f35b7f000000000000000000000000000000000000000000000000000000000000000081565b7f000000000000000000000000000000000000000000000000000000000000000081565b7f000000000000000000000000000000000000000000000000000000000000000081565b61011581610160565b82525050565b61012481610192565b82525050565b600060208201905061013f600083018461010c565b92915050565b600060208201905061015a600083018461011b565b92915050565b600061016b82610172565b9050919050565b600073ffffffffffffffffffffffffffffffffffffffff82169050919050565b600062ffffff8216905091905056fea2646970667358221220b2145763497ea6c3213cb2517554a3b9787d6a2d9a3a4926ae3e221e2cc7e1df64736f6c63430008000033",
  "linkReferences": {},
  "deployedLinkReferences": {}
}